:020000040800F2
:1000000008040020A9010008B1010008B30100089C
:10001000B5010008B7010008B901000800000000A0
:10002000000000000000000000000000BB0100080C
:10003000BD01000800000000BF010008A10C00087D
:10004000C3010008C3010008C3010008C301000880
:10005000C3010008C3010008C3010008C301000870
:10006000C3010008C3010008C3010008C301000860
:10007000C3010008C3010008C3010008C301000850
:10008000C3010008C3010008C3010008000000000C
:10009000000000000000000000000000C301000894
:1000A000C3010008C3010008C3010008C301000820
:1000B000C3010008C3010008C3010008C301000810
:1000C000C3010008C3010008C3010008C301000800
:1000D000C3010008C3010008C301000800000000BC
:1000E000C3010008C3010008C301000800000000AC
:1000F000000000000000000000000000C301000834
:1001000000000000C3010008C3010008C30100088B
:1001100000000000000000000000000000000000DF
:10012000C3010008C3010008C3010008C30100089F
:10013000C3010008000000000000000000000000F3
:10014000000000000000000000000000C3010008E3
:10015000C3010008C3010008C3010008C30100086F
:10016000C3010008C30100080000000000000000F7
:10017000000000000000000000000000000000007F
:1001800000000000C30100080000000000000000A3
:10019000C3010008DFF80CD000F018F80048004751
:1001A000AD0D0008080400200648804706480047B7
:1001B000FEE7FEE7FEE7FEE7FEE7FEE7FEE7FEE717
:1001C000FEE7FEE7390D000895010008064C074DD3
:1001D00006E0E06840F0010394E807009847103417
:1001E000AC42F6D3FFF7DAFF6C0E00088C0E000865
:1001F00031B500F0D3F8044600F0D0F80099001BA8
:100200008842F9D338BD00002DE9F84FDFF860B11E
:1002100000224FF001084FF0030A4FF00F090BF1D5
:10022000040E00BF0B6808FA02F42340A3426ED10B
:100230004D68022D01D0122D0ED1D50800EB850C92
:10024000DCF820505607F70E09FA07F6B5430E6999
:10025000BE402E43CCF82060066855000F790AFA9C
:1002600005FC07F0030726EA0C06AF40374307609A
:100270004E68012E05D0022E03D0112E01D0122E71
:100280000ED18668CF6826EA0C06AF4037438760F8
:100290004668A6430C79C4F3001494403443446088
:1002A000C6688C6826EA0C06AC403443C4604C68CF
:1002B000E40056D52F4C256845F480452560246818
:1002C00022F0030504F4804400942B4C2E19D6F838
:1002D000084895072F0F09FA07F5AC43274DA842A8
:1002E00001D1002515E0264DA84201D1012510E0DD
:1002F000244DA84201D102250BE0234DA84201D193
:10030000032506E0214DA84202D1042501E028E0A2
:100310000525BD402543C6F80858DBF800405D467A
:100320004E689C43F60300D51C432C60DEF8004069
:1003300075464E689C43B60300D51C432C600C4D9B
:1003400008352C684E689C43F60200D51C432C608F
:10035000074D0C352C684E689C43B60200D51C43F3
:100360002C60521C102AFFF45DAFBDE8F88F00002E
:10037000003C01404438024000300140000002408F
:100380000004024000080240000C0240001002403D
:100390000AB1816170470904FBE700000148006869
:1003A000704700000400002002480168491C0160F9
:1003B00070470000040000200B4810B5016841F4AC
:1003C00000710160016841F480610160016841F4DD
:1003D00080710160032000F045F8002000F006F86D
:1003E00000F015F8002010BD003C024010B5044696
:1003F00000F050F94FF47A71B0FBF1F000F047FBD8
:1004000000222146501E00F00DF8002010BD10B54E
:10041000072000F027F80022BDE810401146501ECA
:10042000AFF30080F0B40E4B1B680C46C3F30223FD
:10043000C3F10705042D00D90425191D072901D290
:10044000002300E0DB1E012606FA05F1491E2140CB
:1004500099409E40761E16403143F0BC00F010BC1F
:100460000CED00E0064900F0070208684FF6FF03B4
:10047000184040EA0220034A104308607047000019
:100480000CED00E00000FA052DE9F05FDFF8FCA1BB
:1004900004460F46DAF80000DFF8F48100F00F019F
:1004A0007B4807F0FF0941F2883508F10808B94296
:1004B00062D28AF80090DAF8001001F00F01B94218
:1004C0007ED12178890707D5D8F80020A36822F0CB
:1004D000F0021A43C8F800202178C9072ED06168BD
:1004E00001291AD002291BD0032919D000688007DE
:1004F000002865DAD8F80000464620F003000843DB
:10050000C8F80000FFF74AFF07466068012810D0CE
:1005100002281AD003281ED029E000688003E7E7EC
:1005200000688001E4E700BFFFF738FFC01BA84266
:1005300059D83068C0F381000128F5D189E000BFA7
:10054000FFF72CFFC01BA8424DD83068C0F38100D4
:100550000228F5D17DE03068FFF720FFC01BA842DC
:10056000F9D940E0FFF71AFFC01BA8423BD830681A
:1005700010F00C0FF6D16CE02178890707D5D8F878
:100580000020A36822F0F0021A43C8F80020217866
:10059000C9074CD06168012928D0022929D0032934
:1005A00027D000688007002849DAD8F8002022F018
:1005B00003020A43C8F80020FFF7F0FE064600E0F9
:1005C0003DE0606801281DD0022829D0032838D0DA
:1005D000AB464546286810F00C0F28D0FFF7DEFE2A
:1005E000811B5945F6D90320BDE8F09F00688003C0
:1005F000D9E700688001D6E7FFF7D0FE811B594597
:1006000002D9F0E7AB4645462868C0F381000128CF
:10061000F2D10CE0FFF7C2FE811B594502D9E2E797
:10062000AB4645462868C0F381000228F2D18AF81B
:100630000090DAF8000000F00F00B84209D0012065
:10064000D2E744462068FFF7A9FE801BA842F9D9EB
:10065000C9E72078400707D5D8F80010E26821F4F0
:10066000E0511143C8F800102078000708D5D8F8E9
:100670000010226921F4604141EAC201C8F800106B
:100680000020FFF7B3FE0020AEE70000003C024070
:100690000038024010B500F017F808490968F02248
:1006A00092FAA2F201F0F001B2FA82F2D140044AC9
:1006B000515CC8400349086010BD00000838024082
:1006C0005C0E00080000002030B51948006810F0EA
:1006D0000C01184812D0441004290ED008290DD15D
:1006E0001349091F0A6802F03F030A68550247F6DA
:1006F000C07204D5B4FBF3F003E0204630BDB0FB7C
:10070000F3F00B680968134092FAA2F2B2FA82F28F
:10071000D34058434FF4403292FAA2F201F44031F0
:10072000B2FA82F2D140491C4900B0FBF1F030BD71
:10073000083802400024F4002DE9F84F0446007800
:10074000DFF81CA3C74DC0074FF000064BD0DAF806
:1007500000105046C1F38101012908D00068C0F3A0
:10076000810002280AD1281D0068400206D52868A9
:10077000800338D56068002871D034E0DFF8E49257
:1007800009F1020989F80060FFF708FE804641F28E
:10079000883705E0FFF702FEA0EB0800B8427DD8DD
:1007A00028688003F6D4207989F80000606868B171
:1007B000FFF7F4FD804605E0FFF7F0FDA0EB080031
:1007C000B842ECD828688003F6D50CE0FFF7E6FDC8
:1007D000804605E0FFF7E2FDA0EB0800B842DED856
:1007E00028688003F6D420789F4F80074FF0010BD4
:1007F00045D5DAF80010504611F00C0F4FF0F8090B
:1008000009D00068C0F3810002280BD19448001F72
:100810000068400206D42868800714D5E0680128E3
:100820001DD110E0E068D8B1C7F800B0FFF7B6FD01
:10083000804605E0FFF7B2FDA0EB08006428AED8C3
:1008400028688007F6D5286899FAA9F22169B2FAD2
:1008500082F220F0F8009140084328600FE0FCE0AD
:100860003E60FFF79BFD804606E000BFFFF796FD68
:10087000A0EB0800642811D828688007F6D42078F7
:10088000000729D5DFF8D8917848616909F16C092A
:1008900099B1C0F800B0FFF781FD00E086E0804626
:1008A00006E000BFFFF77AFDA0EB080064287DD8C2
:1008B000D9F800008007F5D50EE00660FFF76EFD61
:1008C000804605E0FFF76AFDA0EB080064286DD8BC
:1008D000D9F800008007F5D4207840075AD5604841
:1008E0003830016841F0805101600068DFF8809184
:1008F00000F080500090D9F8001041F48071C9F8E0
:100900000010FFF74BFD804606E000BFFFF746FDF5
:10091000A0EB0800642849D8D9F80000C005F5D537
:10092000DFF83C8108F1680888F80060FFF736FDC1
:1009300041F28839009005E0FFF730FD0099411A37
:10094000494533D8D8F800008007F5D4207A88F8D4
:100950000000A06878B1FFF721FD009006E000BF1D
:10096000FFF71CFD0099411A49456ED8D8F80000E0
:100970008007F5D50EE0FFF711FD009006E000BFFF
:10098000FFF70CFD0099411A49455ED8D8F80000E0
:100990008007F5D4A069E8B3DAF80010C1F381014B
:1009A00002295AD002283E6605D000E04DE0FFF74C
:1009B000F5FC04464CE0FFF7F1FC064605E000BFFD
:1009C000FFF7ECFC801B64283FD828688001F7D42F
:1009D000D4E90701084347F6C07292FAA2F2616AAD
:1009E000B2FA82F29140A26A4FF0FF3303EB520257
:1009F0004FF4403393FAA3F3B3FA83F39A401143CD
:100A000008434FF0706292FAA2F2E16AB2FA82F2FF
:100A1000914000E01FE008431149091F0860C7F832
:100A200060B0FFF7BBFC044605E000BFFFF7B6FC73
:100A3000001B642809D828688001F7D50BE000BFA7
:100A4000FFF7ACFC001B642802D90320BDE8F88F37
:100A500028688001F4D40020F8E70120F6E70000C0
:100A6000083802400038024000004742800E4742EA
:100A7000007000404FF0E0210428086903D020F006
:100A800004000861704740F00400FAE7704710B5B1
:100A9000401EB0F1807F01D3012010BD4FF0E02453
:100AA00060610F21601700F0EBF80020A0610720C3
:100AB0002061002010BD10B5FFF7E8FF10BD000059
:100AC0002DE9F04F674887B0016841F010010160DF
:100AD000016801F010010591016841F00401016015
:100AE000016801F004010591016841F08001016095
:100AF000016801F080010591016841F00101016088
:100B0000016801F001010591016841F002010160F5
:100B1000016801F002010591016841F008010160DE
:100B20000068002400F0080005904FF0040ACDE9A9
:100B300000A44D4F694638460294FFF765FB08262E
:100B400001250096CDE90154694638460394FFF724
:100B50005BFBDFF818813220CDE90008694602947A
:100B60003846FFF751FB0095CDE9015469464048EE
:100B70000394FFF749FB00960226CDE9016405279F
:100B8000CDE9034769463A48FFF73EFB0095CDE9BA
:100B9000018469463748FFF737FB10200090CDE904
:100BA00001644FF00608CDE9034869463148FFF774
:100BB0002BFBE0204FF00309CDE90006CDE9024907
:100BC000694604972B48FFF71FFBB8020090CDE958
:100BD0000164DFF8A4B0CDE9034769465846FFF742
:100BE00013FB4FF210000090CDE90154234F6946EA
:100BF00038460394FFF708FB4FF4A4500090CDE96A
:100C00000164CDE9034869461948FFF7FDFA680217
:100C1000CDE90004694617480294FFF7F5FA4FF44E
:100C2000E050CDE9000602940A20CDE90390694620
:100C30001048FFF7E9FA2020CDE90004694638465C
:100C40000294FFF7E1FA4FF4107000901220CDE902
:100C50000105CDE9034A69465846FFF7D5FA07B0C2
:100C6000BDE8F08F30380240001002400000121042
:100C7000000802400000024000040240000C024054
:100C80000907090E002806DA00F00F0000F1E02045
:100C900080F8141D704700F1E02080F800147047C0
:100CA00010B5FFF781FBBDE81040FFF704BF00005F
:100CB0001F4810B5016892B041F080510160006892
:100CC00000F0805011901B48016841F440410160E0
:100CD0000068022400F4404011900120009001902F
:100CE0008005CDE90640082008904FF4A8700990CF
:100CF00004200A9007200B906846FFF71DFD052091
:100D0000CDE90C040020E102CDE90E011090022192
:100D10000CA8FFF7B9FBFFF7BDFC4FF47A71B0FBED
:100D2000F1F0FFF7B4FE0420FFF7A4FE12B010BDEF
:100D300040380240007000401048016841F47001E2
:100D400001600F48016841F0010101600C4A002177
:100D50000832116002680B4B1A400260031D0A4AF8
:100D60001A60026822F48022026005480C3001609B
:100D700002495806803908607047000088ED00E09D
:100D800000380240FFFFF6FE1030002402E008C8E1
:100D9000121F08C1002AFAD170477047002001E0F5
:100DA00001C1121F002AFBD170470000FFF704FBAE
:100DB000FFF77EFFFFF784FE274C4FF480574FF478
:100DC000FA754FF400584FF480494FF4004A01225D
:100DD00039462046FFF7DCFA2846FFF709FA0022D9
:100DE00039462046FFF7D4FA2846FFF701FA0122D8
:100DF000464641462046FFF7CBFA2846FFF7F8F96A
:100E0000002231462046FFF7C3FA2846FFF7F0F9E3
:100E100001224E4649462046FFF7BAFA2846FFF718
:100E2000E7F9002231462046FFF7B2FA2846FFF7DD
:100E3000DFF90122564651462046FFF7A9FA284617
:100E4000FFF7D6F9002231462046FFF7A1FA2846DF
:100E5000FFF7CEF9BBE70000000C024000000000E5
:100E60000102030401020304060708098C0E0008AE
:100E700000000020080000008C0D0008940E0008FF
:100E800008000020000400009C0D00080024F4006D
:040E9000000000005E
:040000050800019559
:00000001FF
